{
  "contractName": "HelloWorld",
  "abi": [
    {
      "constant": true,
      "inputs": [],
      "name": "userName",
      "outputs": [
        {
          "name": "",
          "type": "string"
        }
      ],
      "payable": false,
      "stateMutability": "view",
      "type": "function",
      "signature": "0x70019b35"
    },
    {
      "constant": true,
      "inputs": [],
      "name": "sentence",
      "outputs": [
        {
          "name": "",
          "type": "string"
        }
      ],
      "payable": false,
      "stateMutability": "view",
      "type": "function",
      "signature": "0x8463fa6c"
    },
    {
      "inputs": [],
      "payable": false,
      "stateMutability": "nonpayable",
      "type": "constructor",
      "signature": "constructor"
    },
    {
      "constant": true,
      "inputs": [],
      "name": "saySomething",
      "outputs": [
        {
          "name": "",
          "type": "string"
        }
      ],
      "payable": false,
      "stateMutability": "view",
      "type": "function",
      "signature": "0xfbd61553"
    },
    {
      "constant": false,
      "inputs": [
        {
          "name": "newSentence",
          "type": "string"
        }
      ],
      "name": "changeSentence",
      "outputs": [],
      "payable": false,
      "stateMutability": "nonpayable",
      "type": "function",
      "signature": "0x1a8850f2"
    }
  ],
  "bytecode": "0x608060405234801561001057600080fd5b506040805190810160405280600b81526020017f48656c6c6f576f726c64200000000000000000000000000000000000000000008152506000908051906020019061005c9291906100ae565b506040805190810160405280600981526020017f4775696c6c61756d650000000000000000000000000000000000000000000000815250600190805190602001906100a89291906100ae565b50610153565b828054600181600116156101000203166002900490600052602060002090601f016020900481019282601f106100ef57805160ff191683800117855561011d565b8280016001018555821561011d579182015b8281111561011c578251825591602001919060010190610101565b5b50905061012a919061012e565b5090565b61015091905b8082111561014c576000816000905550600101610134565b5090565b90565b610819806101626000396000f3fe608060405260043610610062576000357c0100000000000000000000000000000000000000000000000000000000900463ffffffff1680631a8850f21461006757806370019b351461012f5780638463fa6c146101bf578063fbd615531461024f575b600080fd5b34801561007357600080fd5b5061012d6004803603602081101561008a57600080fd5b81019080803590602001906401000000008111156100a757600080fd5b8201836020820111156100b957600080fd5b803590602001918460018302840111640100000000831117156100db57600080fd5b91908080601f016020809104026020016040519081016040528093929190818152602001838380828437600081840152601f19601f8201169050808301925050505050505091929192905050506102df565b005b34801561013b57600080fd5b506101446102f9565b6040518080602001828103825283818151815260200191508051906020019080838360005b83811015610184578082015181840152602081019050610169565b50505050905090810190601f1680156101b15780820380516001836020036101000a031916815260200191505b509250505060405180910390f35b3480156101cb57600080fd5b506101d4610397565b6040518080602001828103825283818151815260200191508051906020019080838360005b838110156102145780820151818401526020810190506101f9565b50505050905090810190601f1680156102415780820380516001836020036101000a031916815260200191505b509250505060405180910390f35b34801561025b57600080fd5b50610264610435565b6040518080602001828103825283818151815260200191508051906020019080838360005b838110156102a4578082015181840152602081019050610289565b50505050905090810190601f1680156102d15780820380516001836020036101000a031916815260200191505b509250505060405180910390f35b80600090805190602001906102f5929190610748565b5050565b60018054600181600116156101000203166002900480601f01602080910402602001604051908101604052809291908181526020018280546001816001161561010002031660029004801561038f5780601f106103645761010080835404028352916020019161038f565b820191906000526020600020905b81548152906001019060200180831161037257829003601f168201915b505050505081565b60008054600181600116156101000203166002900480601f01602080910402602001604051908101604052809291908181526020018280546001816001161561010002031660029004801561042d5780601f106104025761010080835404028352916020019161042d565b820191906000526020600020905b81548152906001019060200180831161041057829003601f168201915b505050505081565b606061057560008054600181600116156101000203166002900480601f0160208091040260200160405190810160405280929190818152602001828054600181600116156101000203166002900480156104d05780601f106104a5576101008083540402835291602001916104d0565b820191906000526020600020905b8154815290600101906020018083116104b357829003601f168201915b505050505060018054600181600116156101000203166002900480601f01602080910402602001604051908101604052809291908181526020018280546001816001161561010002031660029004801561056b5780601f106105405761010080835404028352916020019161056b565b820191906000526020600020905b81548152906001019060200180831161054e57829003601f168201915b505050505061057a565b905090565b6060808390506060839050606081518351016040519080825280601f01601f1916602001820160405280156105be5781602001600182028038833980820191505090505b5090506060819050600080600091505b85518210156106815785828151811015156105e557fe5b9060200101517f010000000000000000000000000000000000000000000000000000000000000090047f010000000000000000000000000000000000000000000000000000000000000002838280600101935081518110151561064457fe5b9060200101907effffffffffffffffffffffffffffffffffffffffffffffffffffffffffffff1916908160001a90535081806001019250506105ce565b600091505b845182101561073957848281518110151561069d57fe5b9060200101517f010000000000000000000000000000000000000000000000000000000000000090047f01000000000000000000000000000000000000000000000000000000000000000283828060010193508151811015156106fc57fe5b9060200101907effffffffffffffffffffffffffffffffffffffffffffffffffffffffffffff1916908160001a9053508180600101925050610686565b82965050505050505092915050565b828054600181600116156101000203166002900490600052602060002090601f016020900481019282601f1061078957805160ff19168380011785556107b7565b828001600101855582156107b7579182015b828111156107b657825182559160200191906001019061079b565b5b5090506107c491906107c8565b5090565b6107ea91905b808211156107e65760008160009055506001016107ce565b5090565b9056fea165627a7a72305820ab1839de403c75b37caf4b5bf851a3d764168eb729ccdc07c11fac238bd5beff0029",
  "source": "pragma solidity ^0.5.0;\n\ncontract HelloWorld {\n    string public sentence;\n    string public userName;\n\n    constructor() public {\n        sentence = \"HelloWorld \";\n        userName = \"Guillaume\";\n    }\n\n    function saySomething() public view returns(string memory){\n        return (concat(sentence, userName));\n    }\n\n    function changeSentence(string memory newSentence) public {\n        sentence = newSentence;\n    }\n\n    function concat(string memory _base, string memory _value) internal pure returns (string memory) {\n           bytes memory _baseBytes = bytes(_base);\n           bytes memory _valueBytes = bytes(_value);\n\n           string memory _tmpValue = new string(_baseBytes.length + _valueBytes.length);\n           bytes memory _newValue = bytes(_tmpValue);\n\n           uint i;\n           uint j;\n\n           for(i=0; i<_baseBytes.length; i++) {\n               _newValue[j++] = _baseBytes[i];\n           }\n\n           for(i=0; i<_valueBytes.length; i++) {\n               _newValue[j++] = _valueBytes[i];\n           }\n\n           return string(_newValue);\n       }\n\n}\n",
  "sourcePath": "/home/g_chanut/Blockchain/HelloWorld-Tutoriel/contracts/HelloWorld.sol",
  "compiler": {
    "name": "solc",
    "version": "0.5.0+commit.1d4f565a.Emscripten.clang"
  },
  "schemaVersion": "3.0.6",
  "updatedAt": "2019-04-15T09:05:36.979Z",
  "devdoc": {
    "methods": {}
  },
  "userdoc": {
    "methods": {}
  }
}